:03000000021A06DB
:0C1A0600787FE4F6D8FD758121021A4DAE
:102026007580FFC2B5D2B6D2B4AF80C2B4EF20E796
:01203600F6B3
:012037002286
:10203800AE07122026C2B5C2B6AF068F80D2B4C290
:02204800B422C0
:10204A00AE07122026D2B5C2B6AF068F80D2B4C26E
:02205A00B422AE
:10205C00ED7004AC078004EF2440FCEC4480FF02DC
:02206C0020381A
:10201300ED6004EF4440FFEF4480FF122038AF032C
:0320230002204A4E
:101F6200A907AC03AA0509ECC4540F2430FB1220C4
:0C1F720013AF01EC540F2430FB022013CD
:101E39009000A9EBF0A3EAF0A3E9F012205C90006E
:101E4900A9E0FBA3E0FAA3E0F912050F60179000DF
:101E5900A9A3E475F001120691A9F0FA12050FFF82
:061E690012204A80D9227C
:10000E007F381220387F0C1220387F061220387F5E
:04001E000102203883
:101B1D00446174653A0054696D653A0049204C4939
:101B2D004B45204D43550051584D435500256600FA
:101B3D0025670053746F702057617463683A0030E5
:101B4D0030273030223030003030303030300054DB
:101B5D0068652052656365697665642053656E74AA
:101B6D00656E63652069733A004D6F6465536574E6
:101B7D0065640074696D65536574656400656C6CAE
:101B8D006F20576F726C64210D0A004D6F646520D4
:081B9D005175697465642100B3
:101EF7004700110B2D0E1204011642001800004670
:101F070000840000000000004300810100894600B2
:071F170000000000000000C3
:101F7E009000A9E0C39F50130000007E0B7DBEDDD4
:0B1F8E00FEDEFC9000A9E004F080E5FE
:011F99002225
:101E010075B00FE5B0540FFC640F60297F0A121FF3
:101E11007EE5B0540F640F601CE5B0540FFC44F034
:101E2100F5B0E5B054F0FFE5B054F064F070F8AEF1
:071E310004EC2FFF227FFFEC
:011E38002287
:101BA500121E01EF12076B1C0D771C017B1BF57DC7
:101BB5001BE97E1C0AB71C07BB1C04BD1BFEBE1B14
:101BC500FBD71BF8DB1BF2DD1BEFDE1BECE71BE68F
:101BD500EB1BE3ED1BE0EE00001C107F31227F3292
:101BE500227F33227F2B227F34227F35227F3622AC
:101BF5007F2D227F37227F38227F39227F78227FEF
:0E1C050030227F2E227F3D227F2F227FFF2262
:101F9A0090008DE0C39F50130000007E0B7DBEDDD4
:0B1FAA00FEDEFC90008DE004F080E5FE
:011FB5002209
:101FB600E4FEEEC3940874809480500FC290EF1331
:0B1FC6009291EFC313FFD2900E80E752
:011FD10022ED
:101F4400E4FEEEC39408748094805011C290EFC3F1
:0D1F540013FF3091034480FFD2900E80E512
:011F6100225D
:081FD200AC07AA05E4FD7F8EB7
:101FDA00C29200C29000D29200121FB6AF05021F31
:011FEA00B640
:0C208000C292C290D292121FB6021F44FE
:0720AA00E4FD7F8E021FDA46
:0C208C007D807F8E121FDAC292C290226B
:021C7800AC07B7
:101C7A001220AAE4FBEBC3940774809480504B743F
:101C8A00112BF582E43400F583E0FF75F00A84FA3B
:101C9A0074112BF582E43400F583EF75F00A84E5BC
:101CAA00F0F0EAC454F0FF74112BF582E43400F525
:101CBA0083E02FF0AF0474112BF582E43400F5832E
:0D1CCA00E0FD121FDA0C0C0B80AB02208C29
:101D2900121FD2EB75F00A84C454F0FFEB75F00A68
:101D390084EF25F0FD7F80121FDAEA75F00A84C46A
:101D490054F0FFEA75F00A84EF25F0FD7F82121F37
:101D5900DAEC75F00A84C454F0FFEC75F00A84EFEC
:0F1D690025F0FD7F84121FDA7D807F8E021FDA46
:101F1F00121FD2AF03AD077F80121FDAAF02AD07DA
:101F2F007F82121FDAAF04AD077F84121FDA7D8024
:051F3F007F8E021FDA95
:101E6F00121FD2AF04AD077F86121FDAAF02AD0784
:101E7F007F88121FDAAF03AD077F8A121FDA900037
:0F1E8F0090E0FD7F8C121FDA7D807F8E021FDABC
:021ECD00AC0760
:101ECF001220AAE4FDEDC39407748094805016AFDE
:101EDF000412208074112DF582E43400F583EFF0A5
:081EEF000C0C0D80E002208CB8
:101781007F011220387F80121C787BFF7A1B791D24
:10179100E4FDFF121E397BFF7A1B79237D01E4FFF3
:1017A100121E3990000DE0600302189090008AE04B
:1017B1006014E4F0900013E0FF900012E0FD90004F
:1017C10011E0FB121F1F90008BE06016E4F0900007
:1017D10014E0FFA3E0FDA3E0FBA3E0900090F01272
:1017E1001E6F7F81121ECD900017E0FBE4FD7F0587
:1017F100121F627B2DE4FD7F07122013900015E07C
:10180100FBE4FD7F08121F627B2DE4FD7F0A12209D
:1018110013900014E0FBE4FD7F0B121F627B2DE4AB
:10182100FD7F0D122013900016E0FBE4FD7F0E12E8
:101831001F62900013E0FB7D017F06121F627B3A5D
:101841007D017F08122013900012E0FB7D017F09CA
:10185100121F627B3A7D017F0B122013900011E071
:10186100FB7D017F0C121F627FE8121F9A30B203C9
:101871000217A47F14121F7E30B2030217A47B1437
:101881007D457F11121F1F30B2030217A480F82279
:1013AB009000A01206FA000000009000A41206FAAA
:1013BB00000000007F011220387BFF7A1B7929E4A3
:1013CB00FDFF121E397BFF7A1B79347D01E4FF127E
:1013DB001E39E49000A8F09000A8E0C39419748023
:1013EB009480500D7FC8121F7E9000A8E004F080FF
:1013FB00E67F0112203890000DE0600302165312B5
:10140B001BA590008DEFF0F460ECA3E070057F015D
:10141B0012203890008DE0FF642B6020A3E0641055
:10142B00601AEF642D601590008DE06478600DEF0D
:10143B00642F6008EF643D60030215ECE490008EAE
:10144B00F09000AC74FF200022F0A3741BF0A37487
:10145B003AF0A37401F0A37400F0A374A0F07B0125
:10146B007A007990120D9ED200801EF0A3741BF0AF
:10147B00A3743AF0A37401F0A37400F0A374A4F066
:10148B007B017A007990120D9EE49000A8F09000F9
:10149B00A8E0FFC3941074809480501474902FF5BF
:1014AB0082E43400F583E4F09000A8E004F080DEE1
:1014BB0090008DE0FB7D01E4FF12201390008DE086
:1014CB00FF643D600890008FEFF0021401C20090A2
:1014DB00008FE024D3602E24FE606824B76045247F
:1014EB004D60030215719000A0E0FCA3E0FDA3E0AA
:1014FB00FEA3E0FFA3E0F8A3E0F9A3E0FAA3E0FB6F
:10150B0012002D805B9000A0E0FCA3E0FDA3E0FEA9
:10151B00A3E0FFA3E0F8A3E0F9A3E0FAA3E0FB123A
:10152B000029803C9000A0E0FCA3E0FDA3E0FEA31B
:10153B00E0FFA3E0F8A3E0F9A3E0FAA3E0FB1201BC
:10154B001E801D9000A0E0FCA3E0FDA3E0FEA3E045
:10155B00FFA3E0F8A3E0F9A3E0FAA3E0FB12022754
:10156B009000A01206EE9000AC74FFF0A3741BF079
:10157B00A3743DF09000A0E0FCA3E0FDA3E0FEA36C
:10158B00E0FF9000AF1206EE7B017A007990120813
:10159B00F77B017A0079907D017F01121E39E4906F
:1015AB00008FF09000A41206FA000000009000A03B
:1015BB001206FA00000000E49000A8F09000A8E0EA
:1015CB00FFC3941074809480400302140174902F15
:1015DB00F582E43400F583E4F09000A8E004F08099
:1015EB00DB90008EE0FF7E00C394107480948040EB
:1015FB0003021401EF6401702E900090E0643070D0
:10160B002690008DE0FBB42E0C900091742EF0E42C
:10161B00FD7F01802790008DE0FB900090F0E4FDB2
:10162B00FF12201302140190008DE0FBA3E0FF24B6
:10163B0090F582E43400F583EBF0E4FD1220139077
:08164B00008EE004F00214011E
:011653002274
:10206E005389F0758A66758CFCC28DD2AFD2A9D217
:02207E008C22B2
:10197700900005120528D394394010900005743063
:101987001205BC900004740112057790000412053B
:1019970028B4361090000474301205BC900003740C
:1019A70001120577900003120528D394394010904F
:1019B700000374301205BC90000274011205779081
:1019C7000002120528B4361090000274301205BCCC
:1019D7009000017401120577900001120528D39435
:1019E70039400D90000174301205BC740112055581
:0F19F70012050FB4360890000274301205BC229E
:101654007F011220387BFF7A1B7940E4FDFF121EC4
:10166400397BFF7A1B794C7D01E4FF121E397884A3
:101674007C007D017BFF7A1B795512085D12206E78
:1016840078007C007D017B017A00798412085D90EA
:10169400000DE0600302178090008DF090008DE053
:1016A400FFC39406748094804003021748E0FE242C
:1016B40000F582E43400F583E0FD74842EF582E4C1
:1016C4003400F583E06D6073EF14601B1460231421
:1016D400602B14603314603B24057043900084E055
:1016E400FB7D01E4FF8035900085E0FB7D017F01F7
:1016F400802A900086E0FB7D017F03801F90008795
:10170400E0FB7D017F048014900088E0FB7D017F75
:10171400068009900089E0FB7D017F071220139069
:10172400008DE0FF2484F582E43400F583E0FE7448
:10173400002FF582E43400F583EEF090008DE00490
:10174400F00216A020B00D7F14121F7E20B005B247
:101754008C30B0FD30B1030216937F14121F7E301B
:10176400B10302169378847C007D017BFF7A1B7998
:0C1774005512085D30B10302169380F896
:011780002246
:03000B00021C13C1
:101C1300C0E0C083C082C0D075D000C000C001C086
:101C230002C003758A66758CFC900019E004F0709D
:101C330006900018E004F0900018E07004A3E0643C
:101C4300647021900018F0A3F0900081E0FBA3E002
:101C5300FAA3E0F974011205557B017A0079841225
:101C63001977B294D003D002D001D000D0D0D08263
:051C7300D083D0E03237
:101E9E0053877F759850438E04759CDC438E0143A7
:101EAE008E10D2AFD2AC90001A7401F0A37400F071
:0F1EBE00A3741DF090000E7430F090008CF02291
:080003008F993099FDC299228A
:071DC400F07BFF7A1B798020
:101DCB009000DDEBF0A3EAF0A3E9F09000DDE0FB7F
:101DDB00A3E0FAA3E0F912050F601A9000DDA3E46B
:101DEB0075F001120691A9F0FA12050FF5993099C9
:061DFB00FDC29980D62212
:101A920090000CE0FF700E90000FE0B4240790005D
:101AA2000C7401F022EF604590000FE06423703D5A
:101AB20090000CF090001AE0FBA3E0FAA3E0F9E436
:101AC2001205AA7BFF7A1B795C121DCB7B017A007F
:101AD200791D121DCB7B017A00791D12106F9000C7
:101AE2001A7401F0A37400F0A3741DF02290000C8C
:101AF200E0602790000FE0FF6423601EEF64246023
:101B02001990001AE0FBA3E0FAA3E0F9EF1205AA8C
:0B1B120090001BE475F00112067B221E
:03002300021D7843
:101D7800C0E0C0F0C083C082C0D075D000C000C031
:101D880001C002C003C004C005C006C007309811D6
:101D9800C29890000FE599F0121A92C299C2ACD27B
:101DA800ACD007D006D005D004D003D002D001D0E3
:0C1DB80000D0D0D082D083D0F0D0E03238
:0B106F009000D9EBF0A3EAF0A3E9F039
:10107A0012050F644D703F9000D9E0FBA3E0FAA37C
:10108A00E0F9900002120528FF90008CF090000E03
:10109A00E06F602290008CE0FFC394304018EFD3D9
:1010AA009432501290000D7401F0A3EFF07BFF7A96
:1010BA001B7976121DCB90000EE06430600302119A
:1010CA00DD9000D9E0FBA3E0FAA3E0F912050F6472
:1010DA007460030211DD9000DC7402F09000DCE021
:1010EA00FFC394087480948050439000D9E0FBA316
:1010FA00E0FAA3E0F98F82758300120528FF339581
:10110A00E0FEC3EF9430EE64809480400FD3EF94F6
:10111A0039EE6480948050047F0180027F00900041
:10112A0007EFF060089000DCE004F080AF90000761
:10113A00E070030211DD9000D9E0FBA3E0FAA3E01E
:10114A00F9900006120528540FC454F0FF900007C6
:10115A00120528540F2F900008F090000412052859
:10116A00540FC454F0FF900005120528540F2F9015
:10117A000009F0900002120528540FC454F0FF90A1
:10118A000003120528540F2F90000AF0E4A3F090F0
:10119A00008A04F0FB7A007908121DCB90000AE05D
:1011AA00FFC39425748094805029900009E0FEC3FF
:1011BA00946074809480501B900008E0FDC3946092
:1011CA0074809480500D900011EDF0A3EEF0A3EF1F
:1011DA00121DC490000EE0643060030213AA90004E
:1011EA00D9E0FBA3E0FAA3E0F912050F64796003E2
:1011FA000213AA9000DC7402F09000DCE0FFC394B2
:10120A00087480948050439000D9E0FBA3E0FAA3CD
:10121A00E0F98F82758300120528FF3395E0FEC33B
:10122A00EF9430EE64809480400FD3EF9439EE64EB
:10123A0080948050047F0180027F00900006EFF0C6
:10124A0060089000DCE004F080AF900006E07003D4
:10125A000213AA9000D9E0FBA3E0FAA3E0F99000F8
:10126A0006120528540FC454F0FF900007120528EF
:10127A00540F2F900008F0900004120528540FC450
:10128A0054F0FF900005120528540F2F900009F022
:10129A00900002120528540FC454F0FF9000031264
:1012AA000528540F2F90000AF0900008E0FFC4545C
:1012BA000F75F00AA4FEEF540F2EFBA3E0FFC454EF
:1012CA000F75F00AA4FEEF540F2EFAA3E0F9C454E6
:1012DA000F75F00AA4FFE9540F7C002FFFEC35F0DC
:1012EA00CF24D0CF34078F82F583EA2401FFE43379
:1012FA00FE7D031205DE7D05120645AC06AD07EA42
:10130A0075F002A47A002BFFEA35F0CF2DCF3CFE10
:10131A00EF2582FDEE3583FCAE83E5827802CEC3EB
:10132A0013CE13D8F92DFBEC3EFA7C007D64AF8214
:10133A00AE831205F0C3EB9FFBEA9EFAAE83AF823F
:10134A007C017D901205F0EF2BFFEE3AFE7C007DCA
:10135A00071205F090000BEDF090008B7401F090ED
:10136A00000AE0FFC3949974809480503390000976
:10137A00E0FEC39413748094805025900008E0FD29
:10138A00C39432748094805017900014EDF0A3EE49
:10139A00F0900017EFF090000BE0900016121DC4B9
:0113AA002220
:101CD700D294E490000DF0121E9E12000E7F0A129D
:101CE7001F7E7F481200037BFF7A1B798A121DCB68
:101CF70012178190000DE0601EE4F090008CE02444
:101D0700CF600C14600E2402700D12178180081228
:101D170013AB80031216547BFF7A1B7998121DCBE5
:021D270080D169
:100026000202F9E86480F8E933E83360110460F00D
:10003600ED33EC337009E8FCE9FDEAFEEBFF220440
:1000460060DED3EB9FEA9EE99DE8C2E78CF0C2F73B
:1000560095F0400CE8CCF8E9CDF9EACEFAEBCFFB07
:100066001202C485D0F05804700320D5B3E804709A
:10007600075002B2D502030392D5EC0460F7E4CC34
:10008600C0E0C398F8603B94186008400DD0E0FBD0
:100096000202DBE4FBFAC9FC8028E830E406E4C986
:1000A600FBE4CAFCE830E305E4C9CACBFCE8540724
:1000B6006010F8C3E913F9EA13FAEB13FBEC13FC2F
:1000C600D8F130F52FC3E49CFCEF9BFFEE9AFEEDD2
:1000D60099FDD0E0FBEF4E4D4C701222DB0302037C
:1000E60000EC2CFCEF33FFEE33FEED33FDED30E795
:1000F600EB0202DBEF2BFFEE3AFEED39FDD0E0FB23
:1001060050130BBB0003020303ED13FDEE13FEEFCA
:0801160013FFEC13FC0202DBF5
:10011E00EC4D6011E8497017ED33EC3304600DE4DB
:10012E00FCFFFEFD22E933E8330470F80202F912F7
:10013E0002C458046009E4CC2481500628500902F8
:10014E000303284003020300C0E0EB4A7044B98069
:10015E0006D0E0FB0202EFEF4E701CBD8008EBFFF5
:10016E00EAFEE9FD80EBE98DF0A4FEE5F002020760
:10017E00E9CDF9EAFEEBFFEF89F0A4FCE5F0CE89BC
:10018E00F0A42EFFE435F0CD89F0A42DFEE435F079
:10019E008067EF4E7005BD80D780C3EF8BF0A4ACA7
:1001AE00F0EE8BF0A42CFCE435F0F8EF8AF0A42CE2
:1001BE00E5F038FCE433CB8DF0A42CFCE5F03BF8F5
:1001CE00EE8AF0A42CFCE5F038F8E433CF89F0A4E5
:1001DE002CFCE5F038CF3400CE89F0A42FFFE5F0EB
:1001EE003EFEE433C98DF0A42EFEE5F039CD8AF043
:1001FE00A42FFFE5F03EFEE43DFD33D0E0FB5007BB
:10020E000BBB000F020303EC2CFCEF33FFEE33FEAF
:06021E00ED33FD0202DBDE
:10022400020303EC5D046005E8590470030202F95B
:100234001202C4580460F6EC4860F2EC7004FDFE4F
:10024400FF22C860DB2481C85009C39860025006AD
:100254000203009850CAF582E9294B4A7005AB8223
:100264000202EF75F0007C1A7880C3EF9BEE9AEDE2
:1002740099400DC3EF9BFFEE9AFEED99FDE842F025
:10028400DC23ACF0D0E0FFD0E0FED0E0FDAB822078
:10029400E7101BEB60BAEC2CFCEF33FFEE33FEED02
:1002A40033FD0202DBE803F830E705C0F075F00027
:1002B400EF2FFFEE33FEED33FD40B830E7C280AAE6
:10089200E50824ACF582E43400F583E005082290F3
:1008A20000A93008039000ACE475F001120734028D
:1008B200050F2001E97F2ED2018018EF540F2490FA
:1008C200D43440D4FF30050BEF24BFB41A005003D8
:1008D2002461FFE50960021509050CE50C700205AB
:1008E2000B30080E9000A9E475F001120734EF02F4
:1008F20005AA0200037403D2088003E4C208F508C3
:100902009000A9120762E4F509F50BF50CE5096000
:10091200077F201208D580F5750AFFC202C201C204
:1009220003C204C206C207C2091208A1FF700D3039
:1009320008057F001208E6AF0CAE0B22B4255FC299
:10094200D5C2051208A1FF24D0B40A00501A75F0CE
:100952000A780930D50508B6FF0106C6A426F62096
:10096200D5047002D20480D924CFB41A00EF500407
:10097200C2E5D205020BD8D20280C6D20180C0D213
:100982000380BCD2D580BAD20680B47F201208D5AB
:100992002003077401B5090040F1120892FF120802
:1009A200D502090FD209D2078095120892FB1208CC
:1009B20092FA120892F94A4B700679D67A0C7BFFAA
:1009C20020032EE509602A7E008E827583001205BF
:1009D2002860060EEE650A70F0C2D5EBC0E0EAC0F0
:1009E200E0E9C0E0EE120C39D0E0F9D0E0FAD0E054
:1009F200FB12050FFF60AAEBC0E0EAC0E0E9C0E02D
:100A02001208D5D0E02401F9D0E03400FAD0E0FB9E
:100A1200E50A0460DCD50AD98087D20380A2120CD1
:100A22001B60F7E50A70010412030EA90A600DE5C6
:100A32000A600914F50A120CC3EF60F3EA30E70208
:100A4200F404C3995079EAF4250A0430E701E40476
:100A5200F50A800D120C1B60C1EA050A250A120371
:100A62000EEA9000D8F030E701E4250A04D50A0422
:100A720020060114120C39E4C0E0120CC39000D815
:100A8200E0601320E70714F01208BD802204F0D0C2
:100A9200E014C0E07F001208BDE50A60071208B446
:100AA200150A800B3006031208B4D0E002090FD0F9
:100AB200E00480C4120C1B609EE50A0412030E902F
:100AC20000D8EAF0E50A2006026001042404120CB0
:010AD20039EA
:100AD30074FF04C0E0120CC31208BDE50A2006022D
:100AE30060031208B4D0E0B50AE87F451208C79046
:100AF30000D8E07F2B30E7047F2DF404C0E0120818
:100B0300D5D0E075F00A84C0F01208BED0E0120818
:100B1300BE02090F791080027908C207C209800852
:100B2300D2D5790A8004790AC2D5E50A047002F5A0
:100B33000AE4FAFDFEFF120892FC7B08200213125E
:100B43000892FD7B1030010A120892FE120892FFF0
:100B53007B20EC3382D592D55013C3E43001069F3A
:100B6300FFE49EFEE42002039DFDE49CFCE4CBF83D
:100B7300C202EC700CCFCECDCCE824F8F870F38031
:100B830017C3EF33FFEE33FEED33FDEC33FCEB33F2
:100B9300FB994002FB0FD8E9EB300205F8D0E0C423
:100BA30048B202C0E00AEC4D4E4F78207B0070C281
:100BB300EAB50A0040BCC0E0120C3BD0F0D0E02004
:100BC3000204C4C0E0C4B202C0F01208BED0F0D523
:100BD300F0EB02090F12076B09AC530B1758097D91
:100BE3004C0979420B1B4F0B23440B2349099243B6
:100BF3000B29550A56460AB6450A20470CF65009F2
:100C0300812D09852E09A82B09892309A6200CDF2C
:100C13002A094148000009A0E50AB4FF03750A0642
:100C2300120892FC120892FD120892FE120892FF1B
:100C33009000D102034B790AA2D52004143006098F
:100C4300B910020404B9080104A2D5200702500117
:100C5300042003689203B509005034C0E07F2030BC
:100C630004197F30A20372077206500F120C92C24E
:100C730003C207C206C2097F30800F300603E9C0F2
:100C8300E01208D5300603D0E0F9D0E0B509CC3046
:100C930006177F30B9100C1208D57F583005077F2F
:100CA300788003B908031208D53003057F2D0208A5
:100CB300D57F202009F87F2B2007F322920380CFD2
:100CC3007F00B40700500B24D1F582E43400F58390
:100CD300E0FF22286E756C6C2900D2021208923054
:100CE30002F8C202780930D50108F60209412D50F5
:100CF3004349581208922403B405004001E4900CC0
:100D0300F1931208C6743A1208C6D2047509040294
:020D13000B17BC
:100D1500E50830040104F8232824ACF582E4340006
:100D2500F583229000A93004039000ACE475F0012E
:100D350012073402050F60EAC50C7002150B14C5C5
:100D45000C200404FF0220A29000A974FFF5F00214
:100D5500074BFF021FFFE5096006D509037F002247
:100D650020040F121FEBEF6008050CE50C7002055F
:100D75000B229000A912072B12050FFF60E89000C7
:100D8500A9E475F00112073480DC120D65EFC0E0AF
:100D9500120D57D0E040F3809DD2048002C204902A
:100DA50000A9120762E4F50AF508F50BF50C7509BB
:100DB50000C203C201C202C205120D28FF7005AFB1
:100DC5000A7E0022B42530120D28FF24D0B40A0073
:100DD500500C75F00AC509A42509F50980E924CF49
:100DE500B41A00EF5002C2E502103BD20280D8D2FD
:100DF5000180D4D20580D0EF120D575008120D8F07
:100E0500EF600E80A9EFC0E0120D65D0E06F609E27
:100E1500EF6074120D3B80A7120D65EF6069E5095F
:100E2500700705098003120D65EF601420050E1289
:100E35000D15E475F001120734EF1205AAD509E680
:100E45002005040508050A80BA120D5BEFC0E01203
:100E55000D57D0E05004120D3BE4FF20050E120D96
:100E650015E475F001120734EF1205AAEF70DA20C8
:100E750005040508050A808BE50960020509120DC0
:100E85008F120D5BEF70C6300404E4120D3BE50ACA
:100E95006003020DC47EFF7FFF22E509600205099C
:100EA500120D8FD207D206120D5BEF30070260D705
:100EB500C0E0120D3BD0E0AC0DAD0EAE0FAF101281
:100EC50018A48C0D8D0E8E0F8F105007120D65C254
:100ED5000680D4200510200602050A120D151207FA
:030EE5002B0508D2
:100EE8001206D4020DB3D0E0809A7900800A7910F6
:100EF800800679088002790AD206E50960020509A8
:100F0800E9C0E0120D8FEF60DD120D65BF2D04D230
:100F1800038003BF2B09120D8FEF60CA120D5BD03F
:100F2800E0B40A028033B40802802EBF3027700272
:100F38007408C206C0E0120D5BD0E0BF78028003DF
:100F4800BF58160509D509028007D50904D20680BD
:100F58000B741080197002740ABF000AEFF8E4FCE1
:100F6800FDFEFF020FEEC0E0EF120D3BD0E0F9E40A
:100F7800FCFDFEFFE9C0E0ECC0E0EDC0E0EEC0E043
:100F8800EFC0E0120D5BEFF8D0E0FFD0E0FED0E05C
:100F9800FDD0E0FCD0F0E8604DB461004007B47BC0
:100FA800005002C2E524D0503DFA24F6500724F937
:100FB8005034240AFAEAB5F000502BCFA9F0A42F38
:100FC800FF92D5E9C5F0CEA4A2D53EFE92D5E9C5DB
:100FD800F0CDA4A2D53DFD92D5E9C5F0CCA4A2D50B
:100FE8003CFCC206808EE8C0E020052A20060805E1
:100FF8000A3003031206C6120D1512072B05082026
:10100800010B20020DEE8FF01206A780091206D4FC
:101018008004EF1205AAD0E0120D3B020DB32005A3
:1010280010120D1512072B0508E50B850CF012069A
:10103800A780E812076B0E7D530EF6580DF44C0D81
:10104800F0420DCC480EFA4F0EFE440E1D430EF230
:10105800490EFE550E9F460E9F450E9F470DF82AD6
:0710680010264E00000DFCF4
:1002C400E9D2E7C933E833F892D5EDD2E7CD33EC80
:0702D40033FC5002B2D522F9
:1002DB00EC30E7100FBF000C0EBE00080DBD000484
:1002EB000BEB6014A2D5EB13FCED92E7FD2274FF30
:1002FB00FCFDFEFF22E480F8A2D574FF13FC7D8089
:03030B00E480EF9C
:10030E00F920E73624F950037907E4F42402FBE5DB
:10031E0082158270021583DBF6E024FB501BE96028
:10032E0014E4F0E582158270021583E004F0B40A3D
:0D033E0008E4F0D9EE7401F00A22C2D522C5
:10034B00ED33EC3392D5FA602AB4FF33EDC2E77B81
:10035B00FF60067A037970E4227A03797920D50459
:10036B007A037974224E614E002B494E46002D497B
:10037B004E4600E47A08F0A3DAFC7B00740722C037
:10038B0083C082ECC0E0EDC0E0EEC0E0EFC0E0EA7D
:10039B0075F010A4CAABF075F04DA42BFBE435F04F
:1003AB00FCEA2410FAEB34C5FBEC34D9FCEDC2E7C4
:1003BB00FF75F056A4F42411C5F0F434C58FF0A4E6
:1003CB002AE5F03BE43CF020E7141204CFD0E0FF29
:1003DB00D0E0FED0E0FDD0E0FC1202278014F40444
:1003EB001204CFD0E0FFD0E0FED0E0FDD0E0FC1255
:1003FB00011ED082D083E0FAEDD2E7CD33EC33246B
:10040B0082FBE4C3CF33CFCE33CECD33CD33DBF34F
:10041B007B0775F00A846004F0A31B0AE5F0F0A3D8
:10042B008FF0740AA4FFACF08EF0740AA42CFEAC0F
:10043B00F050010C8DF0740AA42CFDE435F0F0A300
:05044B00DBDE74072256
:10189100C208C209C20AC20BF9E4F511F512FCFD36
:1018A100FEFFE91007EA200A0CB42D04D20AD32264
:1018B100B42B02D32224D0504794095041240A303A
:1018C1000B15F88512F0740AA42872E74051C5F08F
:1018D100704D85F012D322D209C0E0E4FBFA7920E1
:1018E100784112011EECF8EDF9EEFAEFFBD0E0FCC5
:1018F100E412046B12002D3008B41511D322240A0E
:10190100200B20B4FE0720081AD208D32224EB6052
:101911000424E0700EA20A9208D20BC20AD322C399
:101921000202F9E4300B0BE512300A02F404A208BA
:10193100920A3009EA251120D2E5A2E7920B500262
:10194100F404B4260050D8CCC0E0EDC0E0EEC0E015
:10195100EFC0E0EC1204CFD0E0FFD0E0FED0E0FD1C
:10196100D0E0FC200B0512011E8003120227300A71
:0619710003120450C32222
:10045000ED33EC33600A047003BD8004ECB2E7FCBA
:010460002279
:1004610075F020800E75F010800575F0087D007E16
:10047100007F003392D530D5031206C6EC3340100D
:10048100EF33FFEE33FEED33FDEC33FCD5F0ED221F
:0E049100E5F0247EA2D513CC92E7CDCEFF225B
:10049F003F8000004120000042C80000447A000065
:1004AF00461C400047C35000497424004B189680E7
:1004BF004CBEBC205A0E1BCA6753C21C749DC5AEDE
:1004CF00FB60065407601C23231204FDEB543860B5
:1004DF00091204E91204F812011EECF8EDF9EEFA14
:1004EF00EFCB22EB1204F880F1543803241C900454
:1004FF009FFE93FC0EEE93FD0EEE930ECE93FF2216
:101A1200021CD7E493A3F8E493A34003F68001F2F7
:101A220008DFF48029E493A3F85407240CC8C333D5
:101A3200C4540F4420C8834004F456800146F6DFA4
:101A4200E4800B0102040810204080901EF7E47E1F
:101A5200019360BCA3FF543F30E509541FFEE49399
:101A6200A360010ECF54C025E060A840B8E493A360
:101A7200FAE493A3F8E493A3C8C582C8CAC583CA8B
:101A8200F0A3C8C582C8CAC583CADFE9DEE780BE43
:011F1E0000C2
:10050F00BB010689828A83E0225002E722BBFE02EA
:09051F00E32289828A83E493221D
:10052800BB010CE58229F582E5833AF583E0225088
:1005380006E92582F8E622BBFE06E92582F8E222D2
:0D054800E58229F582E5833AF583E49322EC
:10055500BB010989828A83F8E028F022500327F736
:1005650022BBFE05F8E328F3228A838982F8E49307
:0205750028223A
:10057700BB010FF8E58229F582E5833AF583E02888
:10058700F0225009C58229F8E58226F622BBFE092A
:10059700C58229F8E22582F222F8EA2583F583E964
:0305A70093282274
:1005AA00BB010689828A83F0225002F722BBFE0130
:0205BA00F3222A
:1005BC00F8BB010DE58229F582E5833AF583E8F075
:1005CC00225006E92582C8F622BBFE05E92582C821
:0205DC00F22209
:1005DE00EF8DF0A4A8F0CF8CF0A428CE8DF0A42E31
:0205EE00FE22EB
:1005F000BC000BBE0029EF8DF084FFADF022E4CCEF
:10060000F875F008EF2FFFEE33FEEC33FCEE9DECB7
:10061000984005FCEE9DFE0FD5F0E9E4CEFD22EDFD
:10062000F8F5F0EE8420D21CFEADF075F008EF2F47
:10063000FFED33FD4007985006D5F0F222C398FD38
:050640000FD5F0EA22D5
:10064500C2D5EC30E709B2D5E4C39DFDE49CFCEED0
:1006550030E715B2D5E4C39FFFE49EFE1205F0C353
:10066500E49DFDE49CFC80031205F030D507C3E44E
:060675009FFFE49EFE223F
:10067B00C5F0F8A3E028F0C5F0F8E582158270020A
:06068B001583E038F022A7
:10069100A3F8E0C5F025F0F0E5821582700215831C
:0606A100E0C838F0E82279
:1006A700BB010A89828A83F0E5F0A3F0225006F79E
:0F06B70009A7F01922BBFE06F3E5F009F319229B
:0E06C600C3E49FFFE49EFEE49DFDE49CFC2245
:1006D400BB010789828A830206EE5005E9F8020805
:0A06E4007ABBFE05E9F80208862241
:0C06EE00ECF0A3EDF0A3EEF0A3EFF0227F
:1006FA00A8828583F0D083D08212071112071112C3
:10070A000711120711E473E493A3C583C5F0C583E7
:10071A00C8C582C8F0A3C583C5F0C583C8C582C849
:01072A0022AC
:09072B00E0FBA3E0FAA3E0F922CF
:10073400F8E0FBA3A3E0F925F0F0E582158270024E
:070744001583E0FA38F022F2
:10074B00F8E0FBA3A3E025F0F9F0E5821582700237
:07075B001583E038FAF022DB
:09076200EBF0A3EAF0A3E9F02298
:10076B00D083D082F8E4937012740193700DA3A31D
:10077B0093F8740193F5828883E473740293686031
:06078B00EFA3A3A380DF31
:101FEB00100C0B122098BF0D027F0A020003900009
:041FFB00E0E0FF2201
:0820A2009000E0EFF0D20C22E7
:101FFF00EFC394094005EF940E4004EFB42003D3D0
:04200F008001C32267
:10079100E709F60870FA8046E709F20870FA803E28
:1007A10088828C83E709F0A370FA807EE309F6085A
:1007B10070FA8076E309F20870FA806E88828C8381
:1007C100E309F0A370FA806289828A83E0A3F608C4
:1007D10070FA805689828A83E0A3F20870FA804A0F
:1007E10080D280FA80C680D4806580F2803180100A
:1007F10080A680EA809A80A880DA80E280CA80316F
:1008010089828A83ECFAE493A3C8C582C8CCC583E4
:10081100CCF0A3C8C582C8CCC583CC70E9800D8952
:10082100828A83E493A3F60870F9ECFAA9F0EDFB50
:100831002289828A83ECFAE0A3C8C582C8CCC58329
:10084100CCF0A3C8C582C8CCC583CC70EA80DD8951
:10085100828A83E493A3F20870F980CE88F0ED24B4
:1008610002B4040050C4F582EB2402B4040050BA6F
:0908710023234582239007E17363
:0C087A00ECF608EDF608EEF608EFF622AA
:0C088600ECF208EDF208EEF208EFF222AE
:0A2098003098FDAF99C2987E002237
:00000001FF
